:10000000020089802A8C228D2330CF02800280F961
:10001000C2CFD290800CE52324FFF523E52234FFE4
:10002000F522E52345227002800280EAC2902280F8
:10003000D4804075200975216075800075A0007519
:1000400090FE75CB0175CA0153C8FCD2ADD2AFD2B8
:10005000CAE580B40108752006752190800BE5A0E3
:10006000B40106752009752160AC20AD2112000392
:1000700080DF2280BEE4F5D0758124F520F521F5DE
:0C00800022F5231200310200000200757E
:00000001FF
