:100000000200DB80338C278D288013758CFB758A6A
:100010001ED28C308D02800280F9C28DC28CAC273A
:10002000E528FD152870021527ED24FFEC648034C7
:100030007F4002800280D42280CB0200C475200061
:1000400075210475890175220075230575240A75CB
:1000500025507526A00521E52170020520804579EF
:100060002387907C007D05120003805579248790BA
:100070007C007D021200038048792587907C007DFA
:1000800002120003803B792687907C007D051200D8
:1000900003802E8522907C007D02120003E4F5206F
:1000A000F521801DA820A9218012E91460B11460F7
:1000B000BB1460C51460CF1460D98005E860EB8084
:1000C0000080922202003DE4F5D075812978207AE3
:0E00D00009F608DAFC12003A0200000200C72E
:00000001FF
