:100000000200D70200C07522017523007580387583
:10001000A00175A00075808075A00175A000E4F5B1
:1000200024F525E525B40F07E524B40002800280FD
:100030000E75800275A00175A000E4F524F525E495
:10004000F520F521E52124FAE52034FF5002800255
:100050008002802DE5212523F582E5203522F583D8
:10006000120107F58075A00375A0020521E5217036
:10007000020520E52124FAE52034FF5002800280A9
:10008000D375800275A00175A0000525E5257002D5
:100090000524E4F520F521801175800675A0017511
:1000A000A0000521E52170020520E524B52007E523
:1000B00025B5210280065002800280DD0200232245
:1000C000020006E4F5D075812678207A06F608DA73
:0A00D000FC1200030200000200C34E
:1001000048656C6C6F2100E5836003E49322A8824C
:10011000E622E5836004E4938003A882E6F822E502
:10012000836004E4938003A882E6F922E5836004F7
:10013000E4938003A882E6FA22E5836004E49380D6
:1001400003A882E6FB22E5836004E4938003A8828F
:10015000E6FC22E5836004E4938003A882E6FD22A6
:10016000E5836004E4938003A882E6FE22E58360D1
:0A01700004E4938003A882E6FF2256
:00000001FF
