:1000000002013480108D998D248000309902800285
:1000100080F9C2992280EE0200AA75220075233071
:10002000A9237744E5232401F87661E5232402F827
:10003000766EE5232403F87669E5232404F87669CF
:10004000E5232405F8766C758920758DFD7587800C
:10005000D28EE4F520F521E52124FAE520648034F0
:100060007F500280028002803EE5212523F582E553
:10007000203522F5831200ADF5E0759840E5212585
:1000800023F582E5203522F5831200F912000305DD
:1000900021E52170020520E52124FAE52064803461
:1000A0007F5002800280C280FE2202001AE5836037
:1000B00003E49322A882E622E5836004E4938003AC
:1000C000A882E6F822E5836004E4938003A882E630
:1000D000F922E5836004E4938003A882E6FA22E52E
:1000E000836004E4938003A882E6FB22E583600436
:1000F000E4938003A882E6FC22E5836004E4938015
:1001000003A882E6FD22E5836004E4938003A882CD
:10011000E6FE22E5836004E4938003A882E6FF22E2
:10012000E4F5D075812578207A05F608DAFC12000E
:07013000170200000201208C
:00000001FF
