:100000000200EF020097780179007A007B237D0BD4
:100010007C001200B08523A075B000752200752009
:1000200000E52024F65002800280028067E5B0706F
:100030001F752100E521249C500280028002800E61
:1000400080000521E521249C5002800280F2803846
:10005000E52224F6400280028004052280037522F6
:10006000007423A922780029F987A0752100E521D1
:10007000249C500280028002800E80000521E52130
:10008000249C5002800280F20520E52024F65002D4
:1000900080028099808822020006898288838B00F2
:1000A000EC4D6036E4E0F608A31DBDFFF31C80F0C4
:1000B000B800118B00EC4D6021E7F609081DBDFF6B
:1000C000F41C80F1898288838B00EC4D600CE493F2
:1000D000F608A31DBDFFF31C80F022E4F5D0758166
:1000E0002E78207A0EF608DAFC12000302000002D5
:0200F00000DB33
:0B010000C0F9A4B0999282F88090FF33
:00000001FF
